:020000040000fa
:080000000002040000000000f2
:020000040000fa
:040008000e030000e3
:020000040000fa
:04000c000e030000df
:020000040000fa
:040010000e030000db
:020000040000fa
:040014000e030000d7
:020000040000fa
:040018000e030000d3
:020000040000fa
:04001c000e030000cf
:020000040000fa
:040020000e030000cb
:020000040000fa
:040024000e030000c7
:020000040000fa
:040028000e030000c3
:020000040000fa
:04002c000e030000bf
:020000040000fa
:040030000e030000bb
:020000040000fa
:040034000e030000b7
:020000040000fa
:040038000e030000b3
:020000040000fa
:04003c000e030000af
:020000040000fa
:040040000e030000ab
:020000040000fa
:040044000e030000a7
:020000040000fa
:040048000e030000a3
:020000040000fa
:04004c000e0300009f
:020000040000fa
:040050000e0300009b
:020000040000fa
:04005400e4020000c2
:020000040000fa
:040058000e03000093
:020000040000fa
:04005c000e0300008f
:020000040000fa
:040060000e0300008b
:020000040000fa
:040064000e03000087
:020000040000fa
:040068000e03000083
:020000040000fa
:04006c000e0300007f
:020000040000fa
:040070000e0300007b
:020000040000fa
:040074000e03000077
:020000040000fa
:040078000e03000073
:020000040000fa
:04007c000e0300006f
:020000040000fa
:040080000e0300006b
:020000040000fa
:040084000e03000067
:020000040000fa
:040088000e03000063
:020000040000fa
:04008c000e0300005f
:020000040000fa
:040090000e0300005b
:020000040000fa
:040094000e03000057
:020000040000fa
:040098000e03000053
:020000040000fa
:04009c000e0300004f
:020000040000fa
:0400a0000e0300004b
:020000040000fa
:0400a4000e03000047
:020000040000fa
:0400a8000e03000043
:020000040000fa
:0400ac000e0300003f
:020000040000fa
:0400b0000e0300003b
:020000040000fa
:0400b4000e03000037
:020000040000fa
:0400b8000e03000033
:020000040000fa
:0400bc000e0300002f
:020000040000fa
:0400c0000e0300002b
:020000040000fa
:0400c4000e03000027
:020000040000fa
:0400c8000e03000023
:020000040000fa
:0400cc000e0300001f
:020000040000fa
:0400d0000e0300001b
:020000040000fa
:0400d4000e03000017
:020000040000fa
:0400d8000e03000013
:020000040000fa
:0400dc000e0300000f
:020000040000fa
:0400e0000e0300000b
:020000040000fa
:0400e4000e03000007
:020000040000fa
:0400e8000e03000003
:020000040000fa
:0400ec000e030000ff
:020000040000fa
:0400f0000e030000fb
:020000040000fa
:0400f4000e030000f7
:020000040000fa
:0400f8000e030000f3
:020000040000fa
:0400fc000e030000ef
:020000040000fa
:040100000e030000ea
:020000040000fa
:040104000e030000e6
:020000040000fa
:040108000e030000e2
:020000040000fa
:04010c000e030000de
:020000040000fa
:040110000e030000da
:020000040000fa
:040114000e030000d6
:020000040000fa
:040118000e030000d2
:020000040000fa
:04011c000e030000ce
:020000040000fa
:040120000e030000ca
:020000040000fa
:040124000e030000c6
:020000040000fa
:040128000e030000c2
:020000040000fa
:04012c000e030000be
:020000040000fa
:040130000e030000ba
:020000040000fa
:040134000e030000b6
:020000040000fa
:040138000e030000b2
:020000040000fa
:04013c000e030000ae
:020000040000fa
:040140000e030000aa
:020000040000fa
:040144000e030000a6
:020000040000fa
:040208000e030000e1
:020000040000fa
:04020c000e030000dd
:020000040000fa
:040210000e030000d9
:020000040000fa
:040214000e030000d5
:020000040000fa
:040218000e030000d1
:020000040000fa
:04021c000e030000cd
:020000040000fa
:040220000e030000c9
:020000040000fa
:040224000e030000c5
:020000040000fa
:040228000e030000c1
:020000040000fa
:04022c000e030000bd
:020000040000fa
:040230000e030000b9
:020000040000fa
:040234000e030000b5
:020000040000fa
:040238000e030000b1
:020000040000fa
:04023c000e030000ad
:020000040000fa
:040240000e030000a9
:020000040000fa
:040244000e030000a5
:020000040000fa
:040248000e030000a1
:020000040000fa
:04024c000e0300009d
:020000040000fa
:040250000e03000099
:020000040000fa
:040254000e03000095
:020000040000fa
:040258000e03000091
:020000040000fa
:04025c000e0300008d
:020000040000fa
:040260000e03000089
:020000040000fa
:040264000e03000085
:020000040000fa
:040268000e03000081
:020000040000fa
:04026c000e0300007d
:020000040000fa
:040270000e03000079
:020000040000fa
:040274000e03000075
:020000040000fa
:040278000e03000071
:020000040000fa
:04027c000e0300006d
:020000040000fa
:040280000e03000069
:020000040000fa
:040284000e03000065
:020000040000fa
:040288000e03000061
:020000040000fa
:04028c000e0300005d
:020000040000fa
:040290000e03000059
:020000040000fa
:040294000e03000055
:020000040000fa
:040298000e03000051
:020000040000fa
:04029c000e0300004d
:020000040000fa
:0402a0000e03000049
:020000040000fa
:0402a4000e03000045
:020000040000fa
:0402a8000e03000041
:020000040000fa
:0402ac000e0300003d
:020000040000fa
:0402b0000e03000039
:020000040000fa
:0402b4000e03000035
:020000040000fa
:0402b8000e03000031
:020000040000fa
:0402bc000e0300002d
:020000040000fa
:0402c0000e03000029
:020000040000fa
:0402c4000e03000025
:020000040000fa
:0402c8000e03000021
:020000040000fa
:0402cc000e0300001d
:020000040000fa
:0402d0000e03000019
:020000040000fa
:0402d4000e03000015
:020000040000fa
:0402d8000e03000011
:020000040000fa
:0402dc000e0300000d
:020000040000fa
:0402e0000e03000009
:020000040000fa
:0402e4000e03000005
:020000040000fa
:0402e8000e03000001
:020000040000fa
:0402ec000e030000fd
:020000040000fa
:0402f0000e030000f9
:020000040000fa
:0402f4000e030000f5
:020000040000fa
:0402f8000e030000f1
:020000040000fa
:0402fc000e030000ed
:020000040000fa
:040300000e030000e8
:020000040000fa
:040304000e030000e4
:020000040000fa
:040308000e030000e0
:020000040000fa
:04030c000e030000dc
:020000040000fa
:040310000e030000d8
:020000040000fa
:040314000e030000d4
:020000040000fa
:040318000e030000d0
:020000040000fa
:04031c000e030000cc
:020000040000fa
:040320000e030000c8
:020000040000fa
:040324000e030000c4
:020000040000fa
:040328000e030000c0
:020000040000fa
:04032c000e030000bc
:020000040000fa
:040330000e030000b8
:020000040000fa
:040334000e030000b4
:020000040000fa
:040338000e030000b0
:020000040000fa
:04033c000e030000ac
:020000040000fa
:040340000e030000a8
:020000040000fa
:040344000e030000a4
:020000040000fa
:100400002f8d20000eff27000e0188000000000045
:10041000000020000000e000020032000001200087
:10042000200288000e000700007521000100200056
:10043000810f700001003200220007000000200040
:100440000000e00002003200000002000000000096
:10045000da190200000000000040da000000fe008f
:100460004440a900800320000000e00003003200a7
:1004700000002000a00188004440a8000000060001
:10048000f03fb1000180b10006003500ee03090025
:1004900000000000403fb1000180b100fbff3d00c3
:1004a0001000b000203fb0000200350000800900bd
:1004b00000000000000006008a1f78008b1f7800f3
:1004c0000000060091018800800478000000eb0025
:1004d0001a003700e284440032a0b4009905ba0043
:1004e000e284440032a0b4009906ba00e2844400d9
:1004f00032a0b4000006eb00476fde00fd07b2003b
:10050000636ce10003003a00ebff07000000eb0022
:100510000a003700606ce10004003a00005deb0067
:100520008b05e900fdff3e00040037006168e10033
:10053000010032000086eb000b00070019c7ba006b
:100540001905ba000e04e00003003a000a00e000ba
:10055000e0ff3a0000000600fe07b2009e0188009e
:100560008a047800f5ff3700395dba008b05e90091
:100570000c003200295dba008b05e900080032004a
:100580000c00e00003003a00e284440032a0b40012
:10059000f5ff370019ddba008b05e900faff3a00d4
:1005a0008904e800e184440032a0b40000000600a1
:1005b00012030400000000007c0b04000000000097
:1005c000000004000000000000a0fe003400f8005d
:1005d000881f780008002000a80188004f047800d8
:1005e0008560a9002202ab000900320030118000b2
:1005f000f34f500003003a0010c0b30000e8b7000a
:1006000003003700f14f500001003a000068ef008e
:100610003400f9000080fe00004006000040da00cf
:100620000000fe00889fbe000004780001007800f2
:100630008204780088017800090178001100200008
:1006400049000700890f5000010032000004eb0050
:10065000080078004f04be00000006000000fa0009
:10066000e88157004fb99700a18220002031200077
:10067000910007000080fa0000000600889fbe007d
:100680008a1f7800000478000800e0000d003a009e
:1006900088872000700544008004eb005800780033
:1006a0000000e00004003200f4ff07000000e0005a
:1006b00001003d008084eb008a0f5400f7ff3a00f0
:1006c0002500370000002200180060008004eb00c5
:1006d00021003200a80490000f00370009015100ea
:1006e000384090000000fb00890078008605070074
:1006f0000000e00007003c00280090004004980043
:1007000060049800500c98001890a0008084eb00c2
:10071000110037008084440048019000828f54000b
:10072000eeff3900280090004004980098007800ff
:1007300002c020000281600001003a0038009000f1
:1007400001e8a300020032006004980001003700b5
:10075000500c98008004eb00090078004f057800e9
:100760004f04be0000000600889fbe008a9fbe00a6
:100770008c9fbe008e1f7800000678000104780070
:1007800002007800830478000881b900020778002d
:100790000200e000420032000800e00041003200a8
:1007a00082057800c900900069009000808f500099
:1007b0000400390009007800f10007000000e000a3
:1007c0002900350000402000190060000a003200b6
:1007d0000b017800a10020000c0078002f01070019
:1007e000800678000d00e00006003200610516006a
:1007f0000a854600040037000b0578008006eb00f0
:10080000010037000b05780049009000e9009000d6
:10081000808050008a8f500002003100010578006e
:100820008006eb000a0178008c00780025010700a3
:100830008a855500490090000a004000c0049800d5
:100840000d00e00004003200090078008bff070073
:100850000000e00004003a000b00e000020032005b
:100860000a064600cfff3700008020001900600014
:10087000020032000900780080ff070000c020005d
:10088000190060000200320049009000e004980066
:100890008b055700110009008885d800010037003a
:1008a0000000eb004f0778004f06be004f05be006a
:1008b0004f04be00000006006200fa00889fbe00e0
:1008c0008a1f78000005780081047800020478000f
:1008d0008300780080f92f000f004000000107001e
:1008e0009a979f00a9979f000000eb00b09f9f0080
:1008f0001885fb008a04fb000a05ea004f55de005c
:1009000050022000808f54000d003200e10f55008e
:100910000b003a000a017800880078002f909700b9
:100920009f91970003000100a0979f000000e00046
:100930008e0032003f9897000000e800b09f9f00b3
:100940000a04440050022000808f5400040032004a
:100950000900e000e6ff3a003f9897008400370066
:100960000000eb00909f9f00809f9f00f0979f00ea
:10097000e0979f00d0979f00c0979f000700370027
:10098000018c20000100500000004000418b20003d
:1009900061007800df98970001007000d09f9f00f1
:1009a0008804780009047800384578008a00fb0044
:1009b000008c2000cc0007000000e000f0ff3a00af
:1009c000a1c2b300814f55000e003a00cf889700b6
:1009d0000180e900c08f9f0010007800c09f9f0039
:1009e0000000e00005003d000000ea00c09f9f00fd
:1009f0005f9897000020a000d09f9f000904e800a6
:100a00000f003700c09f9f000000eb00050037007b
:100a1000f2ff2700820f5000020032006a01b90085
:100a2000028040000904780088047800b900fb00c7
:100a30000103b100e98f5000f5ff3600c09f9f0011
:100a4000e0c2b300984f1000020032000080eb00bb
:100a500019003700a0c2b300d84f100007003a00b9
:100a6000cf8897000180e900c08f9f0010007800b8
:100a7000a09f9f000804e800100037000000eb0072
:100a8000a09f9f008800780005003700f3ff270033
:100a9000830f5000020032006a02b90004004100d6
:100aa00001047800880078003101fb000203b100e6
:100ab000e90f5100f5ff3600a09f9f009844780091
:100ac0008900fb00c08a2000870007000000e000ca
:100ad000020032000804e800010037008044eb0007
:100ae000c97f9f0080c6b30080cf540004003a0045
:100af00098cf14000a003a00664050000600370004
:100b0000c0c6b30080cf540005003a0098cf14004f
:100b100003003a0065404000c07f9f000804e800e1
:100b20001801fb00e3fb2f008f81410081f92f00aa
:100b30008f804000a0f92f000f00400076000700d2
:100b40000000e00009003a00e1fb2f008f80400028
:100b5000a0f92f000f004000810107000000e00015
:100b6000020035000804e80061ff37000080eb0058
:100b70004f0578004f04be000080fa000000060018
:100b8000889fbe008a1f780000047800c80090008b
:100b9000680190000000eb00828f50003c0039009b
:100ba000180078002200290002016000e20f5100c5
:100bb00007003200012024000000e00001003d0099
:100bc00001202000008c70000080eb003000370016
:100bd0000200260002006000820f500009003a0067
:100be00038009000808f500006003900080078001f
:100bf000a2fe0700800078000080eb000100e0000a
:100c000023003a001805780000c0200000006500ad
:100c100018003a00a804900060022000080040007c
:100c2000808f540013003a00002020003b02070090
:100c3000200498000000e00005003a002904980014
:100c4000490498008904e800390498000800370036
:100c50000a60a0000a0c78004004980001202000df
:100c60008080400031049800400c9800500c98009f
:100c700056020700280090005004980038009000a9
:100c80006004980000002600180c70000000eb00c3
:100c90004f0578004f04be00000006000300370037
:100ca000b0cf1000050032000201e9008001780099
:100cb0000200e000faff3a0000000500030078009f
:100cc000000006008001780002003700b15978006a
:100cd0000201e9000200e000fcff3a00000006000b
:100ce0000108780000000600020037000304e0005d
:100cf000060032000001780002007800b041780060
:100d000081cf5100f9ff3a00010037000001eb00ec
:100d10000200780000000600889fbe008a9fbe0087
:100d2000e4c6b300844f5100be00320010003c0006
:100d30006b425200844f51001800320005003c0005
:100d400054c2b300844f5100f600320084c5b30092
:100d50000f00370044c6b300844f51001400320026
:100d600065424200844f5100f1003a001000370004
:100d700004c7b300844f5100dd0032005600350037
:100d800065424200844f51005300320063424200ea
:100d9000844f5100e6003a004f0037001181e9000e
:100da00082087800f000900012417800de003700e1
:100db00020629000c5c6b300854f520007003a007c
:100dc0009102780064825200840878001402be0008
:100dd0004fabde00860378001400370015c7b30060
:100de000854f520003003a00110478006802540055
:100df00005003700a5c6b300854f520006003a0033
:100e00009104780068825400840878005403be007e
:100e10004402be00050037001182e9008408780012
:100e200014027800cfa2de00612bb9000498be0046
:100e30000690be00a060900088c6b30088cf500026
:100e40000d00320028c6b30088cf500004003a00dd
:100e50000402fb00cfa2de00612bb90008003700be
:100e600048c7b30088cf50000300320066444400f6
:100e700088cf500004003a00cfa2de00612bb900f9
:100e80000498be000690be003002be002003be00e3
:100e9000f0009000e00f5200e08f5a00e00f5b007e
:100ea000e08f5b0002003d00d4c2b30008003700b1
:100eb000001290000418a30002003200b4c2b30074
:100ec000030037000408a3005100320004c2b3003d
:100ed00084f178004c00370020629000c5c6b30052
:100ee000854f520008003a00110578006402550051
:100ef000840878001404be006055b8000802be00e3
:100f00000a03be001400370015c7b300854f520016
:100f100003003a009104780068825400050037000d
:100f2000a5c6b300854f520006003a0011057800af
:100f300068025500840878005403be004402be00d5
:100f4000050037001182e900840878001402780057
:100f50008002eb006033b8000498be000690be002b
:100f6000a060900088c6b30088cf50000d0032000a
:100f700028c6b30088cf500004003a000482fb006a
:100f80008002eb006033b8000800370048c7b300a8
:100f900088cf5000030032006644440088cf5000e0
:100fa00004003a008002eb006033b8000498be00f1
:100fb0000690be00801090000138a300140032009b
:100fc0003002be002003be00e00f5200e08f5a0046
:100fd000e00f5b00e08f5b000d00320081c7b300c3
:100fe000814f51000300320081c5b300814f510091
:100ff00007003a00f000900004c3b30084f17800c9
:101000008100e80082f178008100e800710098001a
:10101000f0009000818141006300980082407800d8
:101020003e003700a0619000c4c6b3001181e90002
:1010300084cf5100220032000a003c00644252007a
:1010400084cf51002500320004c2e80084cf510053
:10105000130032006842520084cf51001e003a0053
:101060000a00370044c7b30084cf51001b00320090
:101070006642420084cf510018003200694252009b
:1010800084cf510014003a00050037008208780030
:101090009200780040589000804878002c0037007b
:1010a0008208780092007800600a9000cfa2de00eb
:1010b000612bb9008498be008690be0024003700e2
:1010c000820878009200780060099000cf91de00dd
:1010d0008288be001e0037001181e9008208780076
:1010e00092007800600890008008780018003700af
:1010f0001181e9008208780012027800cfa2de0098
:10110000612bb9000498be000690be00f00090006c
:10111000818141006300980081c7b300810107000d
:101120000b003700f000900082f1780006003700d5
:10113000f0009000818141000204e00001003a00cb
:1011400052c2b300824978008100e8007100980023
:101150000000eb004f05be004f04be00000006007b
:101160000400fa00889fbe008a9fbe008c1f780092
:101170000004780001067800f80d900078009000d7
:10118000808555000808900080855500180890005b
:10119000808555002808900080855500380890000b
:1011a0008085550048089000808555000002220087
:1011b00090bf9f0000032300a0bf9f000810900075
:1011c0000028a30015003a000b00e00013003400d3
:1011d0000b0578008a047800e20f55000100360004
:1011e00029002000c801900009017800ee80570016
:1011f0005800900003000100500498000000e00037
:101200008c0032006808900009004000600c9800d3
:10121000090555004240a900eeff3c00780190000e
:101220000200e0000c003400c80190008c0078003f
:101230005800900003000100500498008080eb00eb
:101240000000e0007c003200e80890007800900088
:1012500000804000600c9800880c90000900e000bd
:101260001100340009057800e28f540001003600b7
:101270002a002000c80190000a017800ec80570085
:101280005800900003000100500498000000e000a6
:1012900068003200680890000a004000600c980066
:1012a0008a845400edff3700180990000200e00026
:1012b0000c003400c8019000e80090005800900035
:1012c00003000100500498008080eb000000e00063
:1012d00059003200e8089000180890000080400093
:1012e000600c9800a80c90000900e0001100340088
:1012f00009057800e28f5400010036002a00200022
:10130000c80190000a017800ec8057005800900056
:1013100003000100500498000000e0004500320086
:10132000680890000a004000600c98008a8454000d
:10133000edff3700380990000200e0000e00340095
:10134000e80090001808900080804000c8019000dc
:101350005800900003000100500498008080eb00ca
:101360000000e00034003200e808900038089000e7
:1013700000804000600c9800c80c90000900e0005c
:101380001100340009057800e28f54000100360096
:101390002a002000c80190000a017800ec80570064
:1013a0005800900003000100500498000000e00085
:1013b00020003200680890000a004000600c98008d
:1013c0008a845400edff3700081090008000eb0085
:1013d0000028a300180032000b00e00016003400c3
:1013e0008b04780009057800e28f54000100360074
:1013f0002a002000c80190000a017800ee80570002
:101400005800900003000100500498000000e00024
:1014100008003200680890000a004000600c980044
:101420008a8454004240a900eeff3c008000eb009b
:10143000010037008080eb00010078004f06780043
:101440004f05be004f04be000080fa0000000600f9
:10145000889fbe0000047800314680000100e00053
:1014600002003200010078000d0037004146800084
:10147000808c200004003700910f540025003600b6
:101480000180e800910090000100e000faff3a00be
:1014900010003700920f54001e0036000280e80052
:1014a000100178000200e000faff3a001101780014
:1014b00041468000808c200004003700910f5400ca
:1014c000140036000180e80091009000828f5000e7
:1014d000faff3a0059468000888f5400010031001d
:1014e0008804780009007800bd0107000000e000d2
:1014f00004003a00888f5400050032008904d100ae
:10150000f5ff370009187800bf010700d2ff370048
:101510000000eb004f04be0000000600881f7800aa
:10152000630440000800a1008000eb00800f54001d
:1015300021003600e30f540001003e004800200067
:1015400008007800c2ff07008000eb000000e00008
:1015500019003200900078009101780064815100f8
:10156000880f51000300310011019000020878003b
:1015700007003700088140000208780091019000c0
:1015800013019800100178001109140088087800f0
:10159000100178000000eb000200e00004003200bf
:1015a000920190000300e000010032000280e80098
:1015b000304688008180e800010078004f04780000
:1015c00000000600c0b72000c1013700881f780066
:1015d000c88c20001804e00003003a00f9ff07005f
:1015e00020c0b300004c78004f04780000000600d3
:1015f000889fbe0000047800080078001ffc0700e8
:10160000800478000004200018006000020032000e
:10161000280090007c0107000000eb0020049800e7
:10162000384090000004e000050035000000fb0099
:10163000f90107000000e000010032008084eb00a7
:10164000181090000000e00008003200fd010700c3
:101650000000e000010032008084eb0018109000d0
:10166000690107000000eb0010149800000820003a
:10167000180060000f003200818720000000eb009e
:10168000d10f140005003a0000004000a18720009f
:10169000008040000008eb00030037000000e80075
:1016a000e80f5000f6ff3a000800780056010700e6
:1016b0000e003700000c780000c0eb0030449800aa
:1016c00060022000080040002004980040049800b8
:1016d00050049800400c980060049800500c98004a
:1016e0007004980076004400000c9800090078000f
:1016f0004f04be0000000600889fbe00a88820009e
:10170000f0045400480078000000e00001003200be
:10171000b7ff0700890f5400faff3a004f04be00dc
:1017200000000600fc874700889fbe008a9fbe001d
:101730008c9fbe008e1f78000006780080c5b30025
:1017400080cf50000a0032007740400080cf500028
:101750000a0032006940400080cf50000b00320088
:10176000b089200080bf9f00ae0020000a00370033
:10177000a288200082bf9f0006003700b3892000a6
:1017800083bf9f008e00200003003700b489200033
:1017900084bf9f000e0120003c02be002c03be004f
:1017a0000605be000404be0040c6b30080cf500052
:1017b000030032006540400080cf50000b003a002b
:1017c000e00f5200e08f5a00e00f5b00e08f5b00fb
:1017d00006003d006000b8006011b800040450002d
:1017e000858458000605590087855900e80f570081
:1017f0000400320040002000f00f570038003a008b
:101800000100370030002000e00f5400e08f5c0042
:10181000e00f5d00e08f5d0004003a00dc089000fe
:101820008d0120000100e000060032008e00e9007a
:10183000888060008fba9700e5c07800f1ef9f00c4
:101840007d012000800078008100e9000500330060
:101850008b05d1000a85d3008984d3000884d30086
:10186000f9ff3700089ebe000a96be00120037003e
:101870008d06e9008e00e900848060000fb99700b2
:10188000e2c1780082fd2f000f01410003f17e00cc
:10189000800078008100e900050033008783d100d3
:1018a0000683d3008582d3000482d300f9ff37007a
:1018b000049ebe000696be003c02be002c03be0085
:1018c000e00f5200e08f5a00e00f5b00e08f5b00fa
:1018d0008b0034000d00e000e5ff3c00880037007d
:1018e0002c60900081c6b300814f50000b00320085
:1018f00006003c000004e00008003200e6c0500092
:10190000814f50004e003a0004003700c1c6b300ba
:10191000814f50004a003a00210037000800e000e3
:1019200004003a005c0890008d0120000000e000f7
:1019300006003200110009000e84d8000fb997008c
:10194000e2c07800f1ef9f007d0120001100090046
:101950000e84d8000a003700110009000e04d800d8
:101960008d06e9000e81b900020454008fb897007b
:1019700061417c0081fd2f008f80400082f07e005d
:10198000000478000800e000020032000d00e000d2
:10199000f1ff3c00cfc4de00614db90025003700e7
:1019a000e00f5400e08f5c0004003a005c089000f7
:1019b0008d0120000000e000070032006171b900d5
:1019c0000800be00490207008fb99700e341780084
:1019d000f3ef9f007d0120006171b9000800be0097
:1019e000450207000b0037006171b9000800be0016
:1019f000510207008d06e90000f1b900020454000d
:101a00000fba9700e4427c0084fd2f000f024200d1
:101a100005f27e000004be00e00f5000e08f580089
:101a2000020032000d00e000efff3c004fcdde0071
:101a30008a057800089ebe000a96be003000370076
:101a4000e00f5400e08f5c00e00f5d00e08f5d0070
:101a500004003a005c0890008d0120000000e000c6
:101a6000090032006172b900612bb9000800be00a4
:101a70000a01be00ae0207000fba97006442780068
:101a8000f4ef9f007d0120006172b900612bb90065
:101a90000800be000a01be009e0207000d003700cc
:101aa0006172b900612bb9000800be000a01be00d6
:101ab000a30207008d06e90000f2b90004045400f7
:101ac0008fba970065427c0085fd2f008f8242000f
:101ad00084f27e00009ebe000296be003c04be0062
:101ae0002c05be00e00f5400e08f5c00e00f5d00ad
:101af000e08f5d00020034000d00e000e8ff3c00d4
:101b0000e80f570010003a000c1090000038a300b6
:101b10000d003200f78f560006003e0085fd2f00b5
:101b20008f824200e5c07e0000c3b30080cf50002a
:101b3000050032008d06e90002c3b30081fd2f00cd
:101b40008f80400082f07e0078811600120e98008f
:101b50006c00900083fd2f008f8141008d8041003b
:101b600058fc07001c089000dc089000810f500012
:101b700006003d0000805000000e98000c10900000
:101b80000040a100001698000f0037000100e0009f
:101b90000d003d008c109000f4806000f08f50002c
:101ba00009003a007c099000fc009000810051007f
:101bb0000c09900082805000008050004240a90033
:101bc00001003400000e98004f0778004f06be0059
:101bd0004f05be004f04be00cf01b100000006005b
:101be000800078000000eb000100e00005003400f8
:101bf000010078009c000700e10f400001003a005e
:101c00000000eb00000006000000e0002f003200a2
:101c1000c0017800e38f51002c0036000308a300b8
:101c20002a003a00414680000100e0000200320034
:101c3000810f5000040031001100980040468800d8
:101c40001600370082007800110190000200e000c9
:101c500002003200800f5100faff390011027800b3
:101c600084824000850f500018003900808f520098
:101c700003003a00830842000100780007003700a3
:101c80000200e0000300320083014000830f510096
:101c90000e0039001200980090009800900090000b
:101ca0000100e0000900320010014000828f500066
:101cb00006003a00628c20000009eb001001780059
:101cc00011084100910090001100980000000600ea
:101cd000010020000100e000080032000100800047
:101ce0000100e000050032008100e90001008800e9
:101cf000818040000200800000b1780000000600f2
:101d000000c0da00000006000a00fa00e20f5000ee
:101d100034003e0070468000e10f500003003200a6
:101d2000e20f500011003a000c003700032220009f
:101d30000300e00001003a000040da002002e20067
:101d4000020035002822ef0021e2a8002342ab0068
:101d50000d003a002342a8000b00370003232000a7
:101d60000300e00001003a000040da003002e20027
:101d7000020035003822ef0031e2a8003342ab0008
:101d800001003a003342a800820178000b003700be
:101d90003102fb00e10f500004003a002322ab00a7
:101da000feff3a0024118800030037003322ab0005
:101db000feff3a00a41188008301e9000300e0005f
:101dc000f3ff3a00e10f500003003a002302ab009a
:101dd000feff32000b0037003302ab00feff320083
:101de0000800370033002000b3bf9f00c0bf9f0032
:101df000d1bf9f00e2bf9f006a805700c0ff07006d
:101e00006fb99700020078000080fa000000060019
:101e100000c0da00000006000a00fa0011002000ed
:101e2000b1bf9f00c0bf9f006a805700f8ff070046
:101e30004fb897000080fa000000060000c0da00ea
:101e4000000006000a00fa0051002000b1bf9f0008
:101e5000c0bf9f006a805700f8ff07005fb8970077
:101e60000080fa0000000600889fbe008004780011
:101e7000804680000000e00004003a000e000700e9
:101e80000084eb000000e000080035008846800078
:101e90000900e000050032000900440006000700c8
:101ea0000000e00001003d000084eb000800780025
:101eb0004f04be0000000600800078000100e00032
:101ec00003003a0000002000804688000000050062
:101ed0000080eb0002002000828f500002003e00d4
:101ee000814688000000eb0000000600889fbe00cd
:101ef0008a9fbe008c1f7800a9000700b000330045
:101f000003866c006450e100240032006420e1008c
:101f1000270032006150e100220032006120e10020
:101f2000210032008b854200eb07b1000134b8007c
:101f3000003ab8000804420089844a00013ab80017
:101f40000030b8008880400009014a0004003300d6
:101f50000000400081804800020149008b05e90033
:101f6000c909dd0083017000010032001300200068
:101f7000c814de004814dd004709de001200b2007c
:101f8000c808de00088470009d00070001f0a10071
:101f90000cf0a70001f0a000920037006120e100e2
:101fa000940032000801be000200be00f7ff3700b7
:101fb0006150e100fcff3a008e00370003f0a20000
:101fc000889fbe008a9fbe008c1f780074000700a7
:101fd0007b0033006450e1004f0032006420e100d8
:101fe0005200320003826c0007003b000905d0005c
:101ff0000306d000820f54000c065d000200390079
:1020000002003200890178000306780085825500bd
:1020100004003d000003fd008103fd008502ea008d
:102020008b854200840f720002003b0060001000ac
:10203000e08018006011b8000005eb007a28e1008c
:102040000a00390006007800c75ddd00f707b2001e
:10205000878075002d003700828171000a017800a9
:10206000610560008180d1000080d3008502e90015
:10207000f9ff3b00060440008784480002003b0053
:1020800060041400e0841c000988a30007003200eb
:102090008a81710082817100610164008904d1002c
:1020a0000884d3008b05e800170037000978a300e7
:1020b00013003a000b00e000130034008b05e90028
:1020c0000804440089844c000a4474000978a30081
:1020d0000d003a000b00e000070034008b05e9001a
:1020e0000804440089844c0001003a000b002000e1
:1020f0000978a300f7ff32000001eb00020037006f
:10210000828171000a0178003d0007000cf0a700f1
:1021100001f0a000330037006420e10002003a0023
:10212000838f6c00330033000801be000200be0044
:102130002c0037000001be00570007000470a70004
:1021400003f0a10003f8a30013003a006509b100f1
:1021500010003200090035006928e1000200350056
:1021600001002800000005000000400081804800b8
:102170008502e900fcff3a0000000600f88f4200eb
:10218000050035008100d1000080d3008502e80001
:10219000fcff3a00000006008000eb000000050094
:1021a0000004be003c0007000003be000405be00a2
:1021b0000200be0038000700844f750000000600d2
:1021c0000200be006450e100050036006420e1001a
:1021d000020036000968a30001003a000800be00b2
:1021e0000160a0004f0678004f05be004f04be00fe
:1021f00000000600f0ff2f00f1ff2700f9ff370075
:1022000081002000618055000b003d000b00200084
:1022100061fe2f000100e1001d0034008281710089
:10222000610164008904d1000884d3000000e80043
:10223000faff3a00710020006100640003007000a2
:10224000020060000900320061044400e0844c0098
:102250000988a500050032008b05e8006808e10048
:1022600002003a008904d1000884d300f20f200054
:102270000258e10005003d00c75ddd00f907b2002e
:102280008980750008007800000006000bf8270020
:102290008b00780000000500c70ade00f107b200dd
:1022a000f50fb20008003200e1cf42000200320018
:1022b0000170a00024000500810f700001003200b1
:1022c0000408050044000500810f700002003a0078
:1022d000140005008502e9000000400081c04800ac
:1022e000fcff3b000170a000240005000200070075
:1022f0000400be00000006006022b80006022000b4
:102300000000d0008180d2000482d2008582d200f9
:102310000000a0000202520083825a000300310034
:102320000202420083824a000000a1000603e90085
:10233000f3ff3a0000000600839f68000100e00000
:1023400002003d0060001000e08018000300e00083
:1023500002003d0060011100e0811900e6ff070066
:102360004f00e00002003b0060001000e080180019
:1023700000000600889fbe008a9fbe003004420015
:10238000b0844a0030054b0090854b006000b100de
:102390000898be000a90be00c1000700020031008c
:1023a000680040001008e8004f05be004f04be0062
:1023b00000000600889fbe008a9fbe003004be0059
:1023c0002005be000418540005985c0006185d0046
:1023d00007985d0011002000b100070001003900de
:1023e0008000eb00108810004f05be004f04be00b7
:1023f000000006001200fa00889fbe008a9fbe00ff
:102400008c9fbe00e0b79f00f1b79f0082bf9f0086
:1024100093bf9f000605be000404be000000eb0051
:10242000d0b79f00c0b79f00b0b79f00a0b79f0074
:1024300090b79f000006eb005fb19700cfb0970008
:10244000820141003fb097000200e00004003d001f
:10245000980007007e805700c6ff07000300370082
:10246000940007007e805700d2ff0700dfb6970078
:102470000d00e0000c0035006fb29700ffb297002e
:102480000fbb97009fbb97001000200001002000a9
:102490006011b800000272008182720002037300b2
:1024a00083837300580007000c06e8000104200035
:1024b000810f5600e0ff3a000d00e00004003d00ef
:1024c0000802be000a03be007e805700a9ff070075
:1024d0005fa897000000e00005003a001fb29700d7
:1024e000afb297003fb39700cfb397004600070005
:1024f0006fb09700ffb097000fb997009fb9970092
:102500004f06be004f05be004f04be000080fa001b
:1025100000000600881f780018002000881f78003f
:10252000b4ff07008f87e9004f0478000000060021
:10253000801feb00afff07008f87e9000000060057
:10254000889fbe008a9fbe003d00070007003d0037
:1025500040000700180020004500070008003d006b
:102560002b0007000004eb00050037000004eb001f
:102570003f00070002003d00250007001800200072
:10258000e4ff07000800e000010032003d00070002
:102590004f05be004f04be0000000600889fbe002d
:1025a0008a9fbe008c1f78002500070008003d00b0
:1025b000280007001c0020000820e10009a8e10015
:1025c0000ab0e1000bb8e10007003d00050037004c
:1025d0000006eb002600070003003d006044b80041
:1025e0006055b8000c000700d1ff07000c00e000a8
:1025f00001003200230007004f0678004f05be009f
:102600004f04be000000060008000700000006009e
:102610006044b8006055b8000402540085825c0034
:1026200006035d0087835d0000000600a4b79f00dd
:10263000b5b79f00c6b79f00d7b79f000000060040
:10264000e00f5000e08f5800e00f5900e08f590074
:10265000000006006044b8006055b8000000540057
:1026600081805c0002015d0083815d000000060046
:10267000e00f5200e08f5a00e00f5b00e08f5b003c
:10268000000006006022b8006033b800000052006d
:1026900081805a0002015b0083815b00000006001c
:1026a0000440e10005c8e10006d0e10007d8e100e0
:1026b000000006004f09de0082817100b3b79f0061
:1026c0004f01de008180400082807000a1b79f0032
:1026d0008fb097004f09de0000004000020070003c
:1026e00090b79f007fa897004f01de0081804000d7
:1026f0008280700081b79f000d0007004f3ade0016
:102700000000400004007000f0af9f0008000700c8
:102710000402420085824a0006034b0087834b0077
:10272000c2ff07000802be000a03be000000060048
:102730002fb29700bfb297004fb39700dfb3970057
:102740000000060042118800001188001111880065
:04275000000006007f
:020000040000fa
:102754004c61000062300000363a00002041000065
:102764006d6100007a6900006e670000204200007d
:10277400616c00006c000000477200006f7500007f
:10278400703200003a200000426f000079610000be
:102794006e67000020260000205200006f6e0000cb
:1027a400005800002f590000203d000020250000a3
:1027b400337500002f250000337500000000000071
:020000040000fa
:1027c400620020000140200000002800dcff070018
:1027d400f0f32f002222b6008560a900f1ff280043
:1027e4004005800080806000000026000100700029
:1027f400400588009560a800008028003101200071
:102804001ef70700000006000048e200feff3a0041
:1028140000000600881f780000447800faff0700d3
:102824002322ab000500320001202000000000003c
:102834001211800002806000fcff3a000884fb0053
:10284400281188002302ab0005003a000110200083
:10285400000000001211800002806000fcff3200c2
:102864004f04780000000600889fbe008a1f78008d
:102874000005780081447800e3ff07000904e000c4
:10288400060032000a04780038407800e1ff0700af
:102894000a40540080cf5400fbff3e004f057800ef
:1028a4004f04be0000000600881f78000044780032
:1028b400d5ff0700c0c7b300d6ff07000840780063
:1028c400d4ff07004f04780000000600ceff070085
:1028d400c0c7b300cfff07000040eb00cdff0700e7
:1028e40000000600881f780000047800c6ff070077
:1028f400c0c7b300c7ff070010c0b300c5ff07007f
:1029040008407800c3ff07004f0478000000060069
:10291400881f780000047800bbff0700c0c7b3001d
:10292400bcff070020c0b300baff070008407800ce
:10293400b8ff07004f04780000000600889fbe001f
:102944008a9fbe0080047800010578008205780023
:1029540003047800acff0700c0c7b300adff070055
:1029640030c0b300abff070009407800a9ff07009f
:102974000a407800a7ff07000b407800a5ff070076
:1029840008407800a3ff07004f05be004f04be00b7
:10299400000006009cff0700c0c7b3009dff0700ae
:1029a40040c0b3009bff070000000600889fbe00e4
:1029b4008a9fbe00800478000105780082057800b3
:1029c4000304780090ff0700c0c7b30091ff07001d
:1029d40050c0b3008fff0700094078008dff070047
:1029e4000a4078008bff07000b40780089ff07003e
:1029f4000840780087ff07004f05be004f04be0063
:102a04000000060080ff0700c0c7b30081ff070075
:102a140060c0b3007fff070000000600881f780035
:102a24000004780078ff07000800e00001003c0083
:102a340018002000c0c7b30076ff070070c0b300c1
:102a440074ff070008007800e60f5000010034000e
:102a5400600020006fff07004f04780000000600ac
:102a640069ff0700c0c7b3006aff070080c0b30056
:102a740068ff070000000600881f78000004780043
:102a840061ff0700c0c7b30062ff0700a0c0b30026
:102a940060ff0700084078005eff07004f047800dd
:102aa40000000600889fbe008a9fbe008004780054
:102ab40001057800820578000304780052ff0700be
:102ac400c0c7b30053ff0700b0c0b30051ff0700f5
:102ad400094078004fff07000a4078004dff0700c7
:102ae4000b4078004bff07000840780049ff0700bf
:102af4004f05be004f04be0000000600889fbe00c4
:102b04008a9fbe008c1f780080047800010578003d
:102b14008205780003067800040478003aff070071
:102b2400c0c7b3003bff0700c0c0b30039ff0700b4
:102b34000940780037ff07000a40780035ff070096
:102b44000b40780033ff07000c40780031ff07008a
:102b5400084078002fff07004f0678004f05be009d
:102b64004f04be0000000600889fbe008a9fbe007e
:102b74008004780001057800820578000304780059
:102b840021ff0700c0c7b30022ff0700d0c0b30075
:102b940020ff0700094078001eff07000a40780064
:102ba4001cff07000b4078001aff07008804780018
:102bb4000004eb000a0220003940780015ff0700ea
:102bc4000804e8008a0f5400fbff3a004f05be00da
:102bd4004f04be0000000600889fbe008a9fbe000e
:102be4008c1f780080047800010578008205780045
:102bf400030678000404780003ff0700c0c7b3008d
:102c040004ff0700f0c0b30002ff0700094078008a
:102c140000ff07000a407800fefe07000b40780022
:102c2400fcfe07000c407800fafe0700084078001c
:102c3400f8fe07004f0678004f05be004f04be00a3
:102c440000000600889fbe008a1f78000004be00b2
:102c540002057800ecfe0700c0c7b300edfe0700d4
:102c640000c1b300ebfe070000082000800f5400f1
:102c74000300340000c8b300e6fe07000700370075
:102c84000800e00003003d000040eb00e1fe070007
:102c94000200370008407800defe07000004200030
:102ca400808f540002003400dafe0700070037006a
:102cb4000900e00003003d000040eb00d5fe0700e2
:102cc4000200370009407800d2fe0700e10f5500ea
:102cd4000300360010c0b300cefe07000200370028
:102ce4000a407800cbfe07004f0578004f04be0071
:102cf40000000600889fbe008a9fbe008c1f7800db
:102d04000004be000205be0004467800befe0700b3
:102d1400c0c7b300bffe070020c1b300bdfe07005b
:102d240008407800bbfe070009407800b9fe0700a0
:102d34000a407800b7fe07000b407800b5fe070094
:102d44000c407800b3fe07004f0678004f05be0024
:102d54004f04be0000000600abfe0700c0c7b3006e
:102d6400acfe070040c1b300aafe07000000060045
:102d7400a5fe0700c0c7b300a6fe070050c1b300fc
:102d8400a4fe070000000600889fbe008a9fbe00c4
:102d94008c9fbe00800478008105780002067800cc
:102da40003047800040578008506780096fe070081
:102db400c0c7b30097fe070060c1b30095fe0700cb
:102dc4000940780093fe07000b40780091fe07004d
:102dd4000c4078008ffe0700084078008dfe070045
:102de4000a4078008bfe070008d5b9000a00e0000d
:102df40001003d006705450043d5de004240a900bf
:102e0400070034008d0478000004eb00394078009a
:102e140080fe07000804e800880f5500fbff3c0013
:102e24004f06be004f05be004f04be000000060062
:102e3400889fbe00800478000104780072fe0700b9
:102e4400c0c7b30073fe070080c1b30071fe070062
:102e5400094078006ffe0700c0c7b3006dfe07008d
:102e640090c1b3006bfe07000840780069fe0700bc
:102e74004f04be0000000600e80f500006003c00ae
:102e84000000e000040034000000e900c300dd009d
:0c2e940010002000e6ff07000000060010
:020000040000fa
:102ea000000800000200000000000000020800000e
:102eb0008800000002000000010000000028080057
:102ec00029082800082808002808280008180800f1
:102ed00000000000000000000000000000000000f2
:102ee00000000000000000000000000000020800d8
:102ef0000101500008510800500850000850080017
:102f00005008400008000000000000000000000021
:102f100000000000000000000000000000000000b1
:102f20000000020008020200780879000878080012
:102f300078087800087808006808000000000000a1
:102f40000000000000000000000000000000000081
:102f5000000000000000000002082a0008520800db
:102f60000000000000000000000000000000000061
:102f7000ac0800001a00000002000000686a6c0043
:102f8000747a4c00000001000002000004000800f8
:102f900000100000000020002b2d23003000000056
:102fa000ca08000002000000020000000400000047
:102fb000c60800000400000000000000cc0800006b
:102fc00002000000000000008a080000220000004b
:102fd000020000003031320033343500363738001b
:102fe000394142004344450046003000313233004d
:102ff0003435360037383900616263006465660035
:1030000000000000ce0800000200000002000000e6
:1030100001000000d00800000200000000000000d5
:0430200000000000ac
:020000040000fa
:103024000000fa0021e3a900c7e2a800c722a80013
:103034002de3a9002d23a9002143a9000119800033
:10304400f0cf2f0000806000001988000119800073
:10305400000e200001007000001988002223ef00f8
:1030640025e3a9002119800000f02100010070006f
:103074002019880020c0b30024e3b70021e3a8008e
:103084000080fa00000006000000fa00d822a9001f
:1030940000000000d842a90000000000d862a90086
:1030a40000000000da22a800da42a800da62a800d0
:1030b400dbff07000080fa00000006000200fa00af
:1030c400004f78001e4078000004e0000d003a0034
:1030d400da22a90000000000da42a8000000000083
:1030e400da62a80000e02e0021002000e3f40700cb
:1030f4004119800000fe2f0000806000f000b30042
:10310400401988001e407800e14f50000d003a003d
:10311400da22a80000000000da42a9000000000042
:10312400da62a90000e02e0021002000d3f4070099
:103134004119800000fe2f00008060009000b30061
:10314400401988000080fa00000006000000fa0020
:103154002023a80000000000001980006100600026
:103164000000e000fcff32002003a90000188000ea
:103174000080fa00000006000200fa00004f780008
:1031840011e1a9001021a90010c1a9000621ef0036
:1031940081088000f0fc2f00008060000050a00037
:1031a4008008880084e0a90094e0a90000fa2000c7
:1031b400600888001e4078000004e00008003a001f
:1031c400d2e2a90040e72000600d880040e720001b
:1031d400500d880060002000700d88000a00370040
:1031e4001e407800e14f500007003a00d2c2a90007
:1031f40040e72000300d880040e72000200d8800c3
:1032040060002000400d880011e1a8000080fa0051
:10321400000006000600fa00004f7800120798002c
:10322400230798001e4078000004e0000d003a00d7
:1032340002002000833424001e009000ae009000a1
:1032440029fb07000001be0000002000a157240054
:1032540059fb0700b6fb070000007800500d8800fa
:103264000f0037001e407800e14f50000c003a0078
:1032740002002000833424001e009000ae00900061
:1032840019fb07000001be0000002000a157240024
:1032940049fb0700a6fb070000007800200d88000a
:1032a4000080fa00000006000400fa0056fd070042
:1032b400a03a2900801f7800e7f407008f87e9000f
:1032c400a0822000ecf4070080c1b30076fd070063
:1032d4000040eb004ffd070090c1b30072fd0700f2
:1032e40080c0b3004bfd070047fd0700e03b290009
:1032f400801f7800d8f407008f87e900a08220009f
:10330400ddf4070080c1b30067fd07000040eb0057
:1033140040fd070090c1b30063fd070000c1b30086
:103324003cfd070058ff07000000eb0092ff070078
:103334001000200090ff070000002a006118200000
:103344004ef407000000eb005cff07007fff07005e
:10335400000f78001000200058ff07007bff0700d3
:103364001007980080c1b3004ffd07000040eb0038
:1033740028fd070090c1b3004bfd070080c2b300d5
:1033840024fd070020fd07009e009000811f7800a7
:103394009e1f7800303d2900801f7800aef407009e
:1033a400e6875700a0822000b3f40700e5ff37004a
:1033b4000000fa0002fd07000c0007000040eb00cb
:1033c40039fd070080c1b30037fd07000040eb0062
:1033d40010fd070090c1b30033fd07000040eb006f
:1033e4000cfd0700b0ff0700ffff37000000fa00e4
:1033f400c082a90000000000c0a2a90000000000d3
:10340400c122a90000000000c142a9000000000080
:10341400c002a900000000000080fa0000000600bd
:020000040000fa
:0200000401f009
:04000c00fbff0000f6
:020000040000fa
:0200000401f009
:04001000f9ff0000f4
:020000040000fa
:0200000401f009
:040014007fff00006a
:00000001FF
